:1000000012C019C018C017C016C015C014C013C044
:1000100012C011C010C010C00EC00DC00CC00BC06B
:100020000AC009C008C011241FBECFE5D4E0DEBF5E
:10003000CDBF27D03DC0E4CF1F920F920FB60F92D5
:1000400011248F938CB1813019F4A19AA29807C022
:10005000823019F4A29AA19802C08FEF84BB8F91CD
:100060000F900FBE0F901F9018958FEF85BB14BA9D
:10007000089510BC89B980E18AB9579A8EE880BD8D
:10008000089585E0F6DFF1DF78944CE45DE129E145
:1000900030E0A39ACA01F9013197F1F70197D9F736
:1000A000A398CA01F9013197F1F70197D9F7F1CF78
:0400B000F894FFCFF2
:00000001FF
